:100000000C9432000C94A9080C944F000C944F00EF
:100010000C944F000C944F000C9495090C944F00D5
:100020000C944F000C944F000C944F000C94D0088B
:100030000C944F000C949F080C944F000C944F00AC
:100040000C944F000C944F000C944F000C94830EB2
:100050000C944F0003026000050154000600580094
:100060000700000011241FBECFE5D4E0DEBFCDBFE6
:1000700021E0A4E6B0E001C01D92A736B207E1F787
:1000800010E0A0E6B0E0ECEAF5E202C005900D92C7
:10009000A436B107D9F70E9414110C94D4120C9411
:1000A000000008950E94C2010E947C010E945E032C
:1000B0000E943C040C94A80208950E94DD020E9454
:1000C00061030E94C7010E9491010C944C041F938C
:1000D000CF93DF9300D000D0CDB7DEB7182F84E0E8
:1000E00089830E94D7028A83E0915701F0915801D9
:1000F00080818B831C832AE04FEF64E0CE01019660
:100100000E94F70C9FEF980F81E0923008F080E09A
:100110000F900F900F900F90DF91CF911F91089546
:10012000CF93DF9300D0CDB7DEB781E089830E9403
:10013000D7028A832AE040E062E0CE0101960E9465
:10014000F70C9FEF980F81E0923008F080E00F905D
:100150000F90DF91CF9108951F93CF93DF93CDB789
:10016000DEB72B970FB6F894DEBF0FBECDBF182FAA
:1001700082E089830E94D7028A831B830E948204C3
:100180009B878A870E9487049987888742E0BE01FF
:10019000665F7F4FCE0104960E94E01042E0BE01F0
:1001A000685F7F4FCE0106960E94E0102AE040E093
:1001B00067E0CE0101960E94F70C9FEF980F81E057
:1001C000923008F080E02B960FB6F894DEBF0FBE99
:1001D000CDBFDF91CF911F910895909358018093E7
:1001E00057010895CF93DF9300D0CDB7DEB78AE0F3
:1001F00089830E94D7028A832BE040E062E0CE012F
:1002000001960E94F70C9FEF980F81E0923008F062
:1002100080E00F900F90DF91CF910895CF93DF93FF
:1002200000D0CDB7DEB78BE089830E94D7028A83E6
:100230002BE040E062E0CE0101960E94F70C9FEFB8
:10024000980F81E0923008F080E00F900F90DF91DE
:10025000CF9108951F93CF93DF93EC01162F0E9447
:10026000C102882391F00E94D002882371F00E947D
:100270007B04882351F0812F0E949D02833039F145
:1002800048F4813099F08230D9F081E0DF91CF914C
:100290001F910895843019F18530B9F78981811152
:1002A000F4CF81E08093650086E007C089818111E9
:1002B000ECCF81E08093650085E080936400E5CF1A
:1002C00099819111E2CF91E090936500F6CF8981F9
:1002D0008111DBCF81E08093650084E0EECF8981DE
:1002E000813029F7F7CF62E00C942A0161E00C9489
:1002F0002A0160E00C942A01109265008CE590E0E0
:100300000E94FB0460E089E791E00E94060561E03D
:1003100086E791E00E94060562E083E791E00C9495
:10032000060580916500882339F0809164000E9461
:10033000AC00811110926500089581E00E94AB0F1E
:10034000811108C022E330E041E068EC70E081E018
:100350000C94B30F089590916800981791F09093C2
:100360006700809368001092660040E060E085E3DB
:1003700090E40E94C90F41E061E085E391E00C94B4
:10038000C90F0895109268001092660008950E94A7
:10039000C102811102C00C949D010E94D002E09123
:1003A000680081110EC0E130B1F7F0E0E652FE4F77
:1003B0000C94E911CB01E6011B021D0256026802F2
:1003C0006A02E73090F310926800089581E00E947D
:1003D000AB0F8111FACF809166008823B9F080912C
:1003E00067008093680041E061E085E391E00E944E
:1003F000C90F40E060E085E390E40E94C90F80915E
:10040000660091E0892780936600089524E630E035
:1004100044E168EE73E081E00E94B30F0E94940211
:10042000882369F324E630E044E168EE73E080E07D
:100430000E94B30FE4CFA89A0895809166008111BD
:100440001BC00E94A30224EF31E0482F68EE73E046
:1004500081E00E94B30F0E949402882351F00E9411
:10046000A30224EF31E0482F68EE73E080E00E94A1
:10047000B30F81E08093660081E00E94AB0F811191
:10048000A4CF0E94AB0F8111A0CF40E061E085E3D3
:1004900091E00E94C90F0E949402882309F495CF2D
:1004A00040E060E085E390E40C94C90F81E00E9495
:1004B000AB0F81118ACF8091660030E020E081117E
:1004C00002C02CE231E043E068EE73E081E0B0CF9F
:1004D000A898089581E00E94AB0F811176CF80919A
:1004E000660030E020E0811102C028EC30E043E0FB
:1004F00060E971E0EBCFCF93DF93EC01BC016D5F5E
:100500007F4F44E08EE690E00E94E010BE01675FFE
:100510007F4F46E082E790E00E94E01086E0809303
:100520005A01DF91CF91089580916D008695817079
:10053000089580916D0081700895E82FF0E0E759EB
:10054000FF4F8181089580916D008695869508956D
:1005500081E08093590110925A0189E690E00C9451
:10056000ED00882339F08093590193E090935A016C
:100570000C94700D089545E0BC0189E690E00C9460
:10058000E01081E040916E0050916F00609170002A
:1005900070917100452B462B472B09F480E008959C
:1005A00081E090915901911101C080E008958091FE
:1005B000590108958091690008950E94710E81117A
:1005C0007CC0E0915A01E83008F075C0F0E0E551D8
:1005D000FD4F0C94E911F302FC025D0309031203C1
:1005E00019031F03270361E090E080E00E944F0E93
:1005F00081E080935A01089589E591E00E94780E88
:100600008091590118161CF081E08093590184E013
:10061000F0CF49E551E061E090E080E00E942F0ECC
:1006200082E0E7CF6AE081E090E00E944F0E85E033
:10063000E0CF8EE690E00E94780E87E0DACF4EE6BB
:1006400050E06AE081E090E00E942F0EF6CF40E09B
:100650006AE08EE690E00E94F5108823E9F024EF2E
:1006600031E041E064EF71E080E00E94B30F8091DF
:1006700059010E94700D8BE792E00E946B0D409132
:100680006E0050916F0060917000709171008091C8
:1006900076000E946909C4CF4FEF6AE08EE690E0D1
:1006A0000E94F510882319F34AE060E08EE690E09E
:1006B0000E94EC10D4CF10925A01089510927C0041
:1006C00008950E94C102811103C010927C000FC0E6
:1006D0000E94D0028823C9F30E94EA0C8823A9F360
:1006E00080917C00813099F018F0823071F7089584
:1006F0000E9490008823D9F381E080937C0048EC2D
:1007000050E060E070E088E790E00C94590F88E7D3
:1007100090E00E94730F8823C1F2089582E08093D5
:100720007C0008951F93CF93DF93182FE9018881F0
:10073000863091F40E94E70C81130EC089818111EB
:1007400024C082E080937D0081E00E94AB0181E0C3
:10075000DF91CF911F91089588818530C9F4198167
:100760000E94D7021813F3CF0E948E03CE01029687
:100770000E94BB02BE01695F7F4F45E08EE790E0BB
:100780000E94E01083E080937D0080918200DDCFA5
:100790008B3079F40E94EA0C81130BC019810E94FE
:1007A000D702181791F389810E94B1020E945E035B
:1007B000ECCF88818730B1F4C9810E94D702C81379
:1007C000C6CF80918200823011F20E949902882364
:1007D00039F081E080937D0082E080938200B5CF84
:1007E00083E0B3CF8A3009F0B2CFC9810E94DA0228
:1007F000C813ADCF81E080937D00A9CF0F931F93E5
:10080000CF93DF93082FE90118811130F9F40981A2
:100810000E94D702081314C00E948E03CE010296D4
:100820000E94BB02BE01695F7F4F45E08EE790E00A
:100830000E94E010809182000E94AB0110937D0025
:1008400081E0DF91CF911F910F9108951230C1F790
:1008500019810E94D7021813F3CF0E948E038A8158
:10086000809382000E94AB010E94EA0C8013E8CFC3
:1008700081E080937D00E4CF10927D008EEF93E0C5
:100880000E94F20C82E993E00E94ED0C45E060E0EA
:100890008EE790E00C94EC1080917D00823001F1A5
:1008A00038F4882309F1813061F010927D001CC07A
:1008B0008330D9F08430C9F70E9481098111F5CFC6
:1008C00008950E94DA02811104C084E080937D00C3
:1008D0000895809182000E9467008111F6CF0895EB
:1008E0000E94F2008111E1CF08950E940E01882339
:1008F000D9F381E0EBCF81E090918200911101C0AA
:1009000080E0089580917E0090917F00089580910D
:10091000800090918100089583B383FB882780F93C
:100920009C9982609D99846008958091A500982F7C
:100930009C7069F410929E000E948C048093A10028
:100940008091A500837F84608093A50008959430F2
:10095000C9F40E948C049091A100891721F0809124
:10096000A500837FF1CF80919E00882331F0809194
:100970009E00815080939E0008958091A500837F02
:100980008860E2CF983011F79091A1009093A40075
:10099000E8CFA398AB9AA498AC9AA598AD9A109278
:1009A000A50010929E0043E067E082E990E00E947B
:1009B000EC1022E043E062E970E08BE890E00E94F6
:1009C000331187E08093A1008093A2008093A3005D
:1009D00080E690E0909386008093850010928400DA
:1009E00010928300E8E9F0E01182108213821282F3
:1009F000158214820895009741F020E08036920716
:100A000021F090938600809385000895E62FF0E012
:100A1000EE0FFF1FE856FF4F918380830895CF9319
:100A2000DF9300D0CDB7DEB79091A3008091A400F2
:100A3000981338C08091A50080FF17C087E890E028
:100A40000E94730F811111C08091A400898381E0FD
:100A50008A838091A5008E7F8093A500BE016F5F81
:100A60007F4F8BE890E00E9472118091A50081FD7C
:100A70006CC06FE970E08BE890E00E94A2118823BF
:100A800061F0809185009091860020919F000097F1
:100A900021F0F0E080369F0769F50F900F90DF910D
:100AA000CF9108958091A3008093A2008091A4002B
:100AB0008093A3008091A40089838091A300873054
:100AC00011F482E0C5CF8091A200873039F6809181
:100AD000A300873019F240ED57E060E070E087E84E
:100AE00090E00E94590F8091A50081608093A5003D
:100AF0001A82B4CFFC013196E491F0E0EE0FFF1FB3
:100B0000E856FF4F40815181509384004093830009
:100B10004091830050918400452B91F0FC01349169
:100B200023130EC024E630E041E068EC70E080E082
:100B30000E94B30F8091A50082608093A500ADCF85
:100B4000FC01329685919491A2CFE0918300F091BF
:100B500084008FE990E00995882309F49ECF1092D4
:100B60008400109283008091A5008D7FE6CF1EBC8B
:100B70001DBC1CBC89B78F7E89BF0895CF93C82F39
:100B80000E94B7051092AF0010920201109201016D
:100B900010920601E091D400F091D500309739F021
:100BA00085E0E93DF80719F08C2FCF910994CF919A
:100BB000089508958FB7F89429ED35E03093D50066
:100BC0002093D4008FBF48E853E160E070E086EAEC
:100BD00090E00E94590F81E0809308011092070174
:100BE00008958FB7F89429ED35E03093D500209320
:100BF000D4008FBF1092070181E08093080148E87C
:100C000053E160E070E086EA90E00C94590F8FB7F2
:100C1000F89429ED35E03093D5002093D4008FBFB0
:100C20001092000182E08093070144E650E060E00A
:100C300070E086EA90E00C94590F2BE02EBD1FBCAB
:100C40009C0150E040E060E472E48FE090E00E949C
:100C5000C7112F5F3F4F50E040E086E0220F331F67
:100C6000441F551F8A95D1F760E070EC88EA90E048
:100C70000E94C7113BBD2ABD89B7806189BF089515
:100C80009FB7F89429ED35E03093D5002093D40038
:100C90009FBF813021F483E080930D01089582305D
:100CA000D1F384E0F9CF9FB7F89429ED35E0309384
:100CB000D5002093D4009FBF8130B9F490910801F2
:100CC0009F5F90930801109207019091080197FF90
:100CD0001BC0809308018093070148E853E160E05E
:100CE00070E086EA90E00C94590F823071F448E885
:100CF00053E160E070E086EA90E00E94590F81E0E5
:100D0000809308011092070108958111FDCF48E8F2
:100D100053E160E070E086EA90E00E94590FF2CF64
:100D20009FB7F89429ED35E03093D5002093D40097
:100D30009FBF813061F444E650E060E070E086EAF5
:100D400090E00E94590F84E080930701089582305B
:100D500061F4109200018093070144EF51E060E0DC
:100D600070E086EA90E00C94590F84E0F4CFCF92C3
:100D7000EF920F931F93CF93DF939091B40060E1B4
:100D800074E0911114C0909100019923C1F0209159
:100D9000000130E0A4E3B0E00E94EF116E577F4FF6
:100DA0008F4F9F4F43E0660F771F4A95E1F7CB01C6
:100DB000DF91CF911F910F91EF90CF9008951091F7
:100DC000030100910101C12FD0E0882301F1CE0180
:100DD0000196959587958032910514F480E290E014
:100DE000815080930301C09003010E945D122FE1A6
:100DF000E22E0FEF1FEF2FEF3FE740E00E94911030
:100E000094E3899FB0011124605F7B4FD0CF802F86
:100E10000E94C5102196282F2C9FC0012D9F900D58
:100E20001124811594403CF4802F0E94C510189F16
:100E3000800D1124D5CF8FEFD4CFCF93DF931092B5
:100E4000060191E09093AA00C6EDD0E0806388830C
:100E50008091000189836A8344E069EB70E089ED49
:100E600090E00E94E01089E08F8368E0CE010E944C
:100E70000211888783E08093AF0088E092E0DF91E1
:100E8000CF910C941D068091B6008F708B3009F4C1
:100E900056C058F48A3079F18091B400882309F45F
:100EA0004DC06091B7008AE024C08C3009F462C064
:100EB0008D3091F78091B400811140C082E00E9492
:100EC000BE0548E853E160E070E086EA90E00E94E9
:100ED000590F83E0809307011092000144E060EB1A
:100EE00070E08EEB90E00E94D110882341F060E02A
:100EF0008BE00C941D078091B400811107C084E041
:100F00008093AF0080E29BEC0C941D0683E08093FD
:100F1000070144E069EB70E08CEF90E00E94E01084
:100F200048E853E160E070E086EA90E00E94590FE3
:100F30008091B8006091B7008F3FD1F608958091FD
:100F4000B4008111FBCF44E060EB70E08FEB90E0E8
:100F50000E94D110882399F282E00E94BE0510926F
:100F600007018091BE008093000180910001809371
:100F70000801D6CF82E00E94BE058091B4008111A5
:100F800026C08FB7F89429ED35E03093D500209333
:100F9000D4008FBF8091B8008F3F69F41092000198
:100FA00083E08093070148E853E160E070E086EA5F
:100FB00090E00C94590F82E08093070148EE53E0D3
:100FC00060E070E086EA90E00E94590F98CF48E810
:100FD00053E160E070E086EA90E00E94590F44E03F
:100FE00069EB70E08CEF90E00E94E01082E080936B
:100FF000070160E08BE00E941D0781E080930801FB
:10100000089580910201813051F482E08093AF0015
:1010100081E00E94B706009771F00C941D06809144
:101020000201823031F485E08093AF0085E090E0EA
:10103000F4CF1092AF0008958091B40081110BC0DD
:1010400080910001811107C084E08093AF0080E2AD
:101050009BEC0C941D062091B8008091000128178C
:1010600071F12F3F61F18091AD00909110019813C3
:10107000EBCF8091BD0089508093230180912301A3
:10108000853140F4409123016EEB70E08FE091E0F8
:101090000E94E0108091B700809325018091B800F4
:1010A000809324018091B6008F708A3021F481E012
:1010B00080930E01C9CF8B3039F682E0F9CF809151
:1010C000B6008F708A50990B029748F02F3F29F095
:1010D0006091B7008AE00C941D070C940108809180
:1010E0000E01882319F02F3F99F708958091BD00D4
:1010F00089508093230180912301853140F44091F0
:1011000023016EEB70E08FE091E00E94E0106091AF
:10111000B700609325019091B800909324018091CD
:10112000B6008F708B3039F482E080930E019F3FC0
:10113000A1F28BE0D0CF8A30D1F781E0F6CF1F92B9
:101140000F920FB60F9211240F900FBE0F901F90A9
:1011500018951F920F920FB60F9211242F933F9361
:101160004F935F936F937F938F939F93AF93BF93AF
:10117000EF93FF930E94B70581E08093AF00FF914A
:10118000EF91BF91AF919F918F917F916F915F91FF
:101190004F913F912F910F900FBE0F901F90189578
:1011A0001F920F920FB60F9211242F933F934F93DC
:1011B0005F936F937F938F939F93AF93BF93EF93BF
:1011C000FF930E94B7050E947F109091D3009D313C
:1011D00008F07CC0E091D300F0E0EA54FF4F808338
:1011E0009091B500913009F452C030F0923091F1F5
:1011F00082E08093B5002EC0A091D300E09106015B
:10120000B0E0AA54BF4FF0E0E152FF4F9C918081C3
:10121000981741F0809104018F5F80930401109230
:101220000601E6CF809106018F5F809306019091C1
:10123000060180910501981748F4E0910601F0E05D
:10124000E152FF4F80810E947D1004C01092060180
:10125000109204018091D3008F5F8093D30088E0C7
:1012600092E00E941D0681E08093AF00FF91EF9114
:10127000BF91AF919F918F917F916F915F914F91AE
:101280003F912F910F900FBE0F901F901895E091F6
:101290000601F0E0EA52FF4F9081891719F0109291
:1012A000AA00BDCF809106018F5F809306018091D7
:1012B0000601893030F4E0910601F0E0EA52FF4F78
:1012C000C1CF1092AA0010920601C4CF1092D30091
:1012D000C6CF8093B4004093B0005093B1006093A8
:1012E000B2007093B3008091B400882339F081E09C
:1012F00080930701CB01BA010C94AC121092070144
:10130000F9CF8091020181110EC08091AA00811154
:101310000AC08091AF00811106C06FEF8DE00E947E
:101320001D0781E0089580E008951F920F920FB687
:101330000F9211242F933F934F935F936F937F935B
:101340008F939F93AF93BF93CF93EF93FF930E949D
:10135000B7058091AF00823009F404C148F48823B6
:1013600009F447C08130F9F081E08093AF0041C0BB
:10137000843009F485C008F400C18530A9F7809154
:101380000101853008F005C1809101018F5F8093D4
:10139000010182E08093AF0080E00E94B7060097D1
:1013A00009F08AC026C0109206011092AF00809109
:1013B000B500813081F138F0823009F444C082E018
:1013C0008093B5004AC01092D3008091B8008F3F3F
:1013D00021F481E00E94BE050CC085E08093AF003F
:1013E00085E090E00E941D0682E08093B500809326
:1013F0000201FF91EF91CF91BF91AF919F918F919A
:101400007F916F915F914F913F912F910F900FBE00
:101410000F901F9018951092D3001092AA0010926E
:10142000D3000E9401088091AE00882311F310922E
:10143000AE00E091AB00F091AC003097D1F286EBBA
:1014400090E00995D6CF8091D300893020F080912B
:10145000D3008E3128F01092AA001092D30010C051
:101460001092D3006091BD00E62FF0E0EB54FF4FE7
:10147000C081615086EB90E00E940211C81719F0FC
:101480000E940108B6CF8091B600982F92959F7068
:10149000913081F1A0F0923091F1933089F79091E1
:1014A000B80020910001921779F19F3F69F184E023
:1014B0008093AF0080E29BEC0E941D069ACF8A3099
:1014C00009F097CF8091B8008F3F09F092CF8091BB
:1014D000B70081118ECF8091BD00803109F089CF96
:1014E00081E08093AE00109207016FEF8BE00E94C5
:1014F0001D077FCF8F7090E00E9443077ACF8F70D7
:1015000090E00E941C0875CF8F708B3061F444E02E
:1015100060EB70E089EB90E00E94D110882339F2F3
:101520001092AF0056CF8A30B1F444E060EB70E027
:1015300089EB90E00E94D110882309F4B8CF109273
:10154000060185E08093AF0080E698E10E941D06C9
:10155000109204014ECF8C3009F4A9CF8D3009F0E0
:1015600048CF8ECF109206011092D3008091DF00F9
:101570000E947D101092B5003CCF1092060110928F
:10158000D30081E08093B5008091D6000E947D1049
:1015900030CF81E08093AF001092020110920101E0
:1015A0008091D4009091D500009709F422CF895DF5
:1015B000954009F41ECF0E948109E091D400F0917A
:1015C000D50080E0099515CFCF93C1E0C093B4005A
:1015D0001092B0001092B1001092B2001092B300BD
:1015E0001092AF001092AA008FE180930301109235
:1015F0000401109205011092020110920001109254
:1016000006014DE160E08FED90E00E94EC1044E1B6
:1016100060E08FE091E00E94EC104DE160E086EB2D
:1016200090E00E94EC1049E060E086ED90E00E94BE
:10163000EC101092D30082E08093B5001092070165
:10164000C093080110920D0110920E0110920A0130
:101650001092090110920C0110920B011092AE0031
:101660001092AC001092AB001092AD0089ED95E0A5
:101670009093D5008093D40085B78D7F85BF85B7C3
:10168000816085BF8BB780648BBFCF910895EF9247
:10169000FF920F931F93CF93DF939091AA00911124
:1016A00054C090910201911150C09091AF009111DE
:1016B0004CC0253108F047C0C22F7B01DFB7F8943A
:1016C0001093D5000093D40091E09093020192E032
:1016D0009093AF0010920601109201018093DF00F9
:1016E000809100018093E0004093E10044E060EBD2
:1016F00070E082EE90E00E94E010CC2349F0E1140B
:10170000F10431F04C2FB70187EE90E00E94E01019
:1017100089E08C0F80930501809105018093E6009C
:1017200068E06C0F8FED90E00E940211EC2FF0E06A
:10173000E152FF4F808781E00E94B706009711F0C9
:101740000E941D06DFBF81E001C080E0DF91CF91E4
:101750001F910F91FF90EF9008950F931F93CF93D8
:10176000DF9300D000D01F92CDB7DEB78091AD00DF
:101770008823B1F00E9481108823E1F00E947F103D
:101780001092AA001092D3001092060144E650E095
:1017900060E070E086EA90E00E94590F0E94010824
:1017A0000F900F900F900F900F90DF91CF911F919E
:1017B0000F9108958091B0009091B100A091B20076
:1017C000B091B300892B8A2B8B2B19F18091B40037
:1017D000882309F451C080910701813041F0C8F09D
:1017E000823039F18330A9F11092070112C001EF64
:1017F00015E020E04FEF70E060E08CE10E94470BC5
:1018000081111092070186EA90E00E94730F8823ED
:1018100059F38091B0009091B100A091B200B091C5
:10182000B300892B8A2B8B2B09F0A2C010920E01DA
:10183000B7CF44E06CEF70E0CE0101960E94E0105B
:101840000AED15E024E040E0BE016F5F7F4F8DE1BF
:10185000D5CF80910801898344E06CEF70E0CE0120
:1018600002960E94E01003E516E025E040E0BE018C
:101870006F5F7F4F8BE1C2CF809100018111B4CFA8
:1018800080910701823009F4BECF68F5882309F4FE
:101890003FC0813009F0A8CF8091B400898307E070
:1018A00016E021E040E0BE016F5F7F4F8CE10E94B7
:1018B000470B882359F048E853E160E070E086EA7E
:1018C00090E00E94590F82E08093070186EA90E041
:1018D0000E94730F81119DCF1092AA0010920201F5
:1018E0001092AF0081CF8330F9F0843009F07CCFC3
:1018F00086EA90E00E94730F81118BCF48E853E194
:1019000060E070E086EA90E00E94590F83E009C031
:1019100048E853E160E070E086EA90E00E94590FE9
:1019200081E08093070175CF00E916E020E040E0F8
:1019300070E060E08AE10E94470B882319F084E0A0
:101940008093070186EA90E00E94730F811161CFB6
:101950001092AA00109202011092AF0044EF51E0E1
:1019600060E070E086EA90E00E94590F84E0D9CFF1
:1019700080910001811105C08091B400882309F491
:1019800055CF8091AA0081110BCF80910E0181303B
:1019900051F008F405CF823009F048CFE0910B01F7
:1019A000F0910C0104C0E0910901F0910A01309717
:1019B00009F43CCF409123016091250180912401DD
:1019C0002FE031E00995882309F4EACE2FCF8091EA
:1019D0000801089580910001089590930A01809371
:1019E0000901089590930C0180930B010895CF9203
:1019F000DF92EF92FF920F931F93C090B000D090B0
:101A0000B100E090B200F090B300CD28CE28CF28EE
:101A100019F410920D014AC030910001311104C037
:101A20003091B4003323A9F3322F262FBC019091BB
:101A30000D019230E9F138F4992351F09130A9F079
:101A400010920D0110C09330E1F1943011F3F8CFF2
:101A500048E853E160E070E086EA90E00E94590FA8
:101A600081E080930D0180E02FC000E416E0832F19
:101A700080620E94470B882359F048E853E160E0F8
:101A800070E086EA90E00E94590F82E080930D0199
:101A900086EA90E00E94730F8111E5CF10920D014C
:101AA0001092AA00109202011092AF0082E00CC0C6
:101AB00086EA90E00E94730F8111D5CF10920D013C
:101AC000EDCF10920D0181E01F910F91FF90EF90EB
:101AD000DF90CF9008959093AC008093AB00089571
:101AE0008093AD00089510925E0110925D011092F6
:101AF00066011092650110925F0110925C011092D4
:101B00005B014AE06FEF86E291E00C94EC1080916B
:101B10006601882309F477C0E19975C081E691E0F8
:101B20000E94730F811109C0109266011092650125
:101B300010925E0110925D010895809166018130DE
:101B400009F041C09091650180916001981700F5FE
:101B50008FB7F89420915D0130915E013FBB2EBBA1
:101B6000E09AE09165019DB3F0E0EA5DFE4F90835D
:101B70008FBF809165018F5F8093650180915D01CA
:101B800090915E01019690935E0180935D010895AE
:101B90001092650180915F01882339F010925E01F7
:101BA00010925D011092660108952091600180916C
:101BB0005D0190915E01821B910990935E0180937B
:101BC0005D0182E01EC080916601823011F5909126
:101BD0006501809160019817B8F4E0916501A091CA
:101BE0006501F0E0EA5DFE4F80915B0190915C0140
:101BF000A80FB92FB11D90818C91981709F4B9CF16
:101C000083E0809366010895109266011092650149
:101C10000895809166018330B1F72FB7F8948091D1
:101C20005D0190915E01AC014F5F5F4F50935E018B
:101C300040935D019FBB8EBB80915B0190915C01E5
:101C4000E091650131E03E0F30936501E80FF92F17
:101C5000F11D80818DBBE29AE19A2FBFB2CF9C012A
:101C6000260F311D2F3F3140C8F46B30B8F49093EC
:101C70005E0180935D0150935C0140935B01609332
:101C8000600110925F0181E08093660148EC50E0B2
:101C900060E070E081E691E00C94590F08959C019A
:101CA000260F311D2F3F3140D8F46B30C8F490938C
:101CB0005E0180935D0186E291E090935C018093E8
:101CC0005B016093600181E080935F018093660116
:101CD00048EC50E060E070E081E691E00C94590F30
:101CE00008959091660181E0911101C080E008950E
:101CF00020916001222331F04091600166E271E0A1
:101D00000C94E01008951F920F920FB60F921124B9
:101D10002F933F934F935F936F937F938F939F93F3
:101D2000AF93BF93EF93FF938091390190913A0164
:101D3000A0913B01B0913C010196A11DB11D809382
:101D4000390190933A01A0933B01B0933C018091FB
:101D50003401815E80933401809134018D37C0F06D
:101D6000809134018D578093340180913901909195
:101D70003A01A0913B01B0913C010196A11DB11D1A
:101D80008093390190933A01A0933B01B0933C01B9
:101D900080913201909133018F38914088F5809184
:101DA0003201909133010196909333018093320177
:101DB0000E9495040E945C0080913D0190913E013B
:101DC000A0913F01B09140010196A11DB11D8093EA
:101DD0003D0190933E01A0933F01B0934001FF91DC
:101DE000EF91BF91AF919F918F917F916F915F9193
:101DF0004F913F912F910F900FBE0F901F9018950C
:101E000010923301109232018091300191E08927C4
:101E10008093300190933101809130018111C8CFBE
:101E20008091350190913601A0913701B091380130
:101E30000196A11DB11D8093350190933601A093A9
:101E40003701B0933801B4CF89B7826089BF7894E5
:101E5000089510923D0110923E0110923F011092A0
:101E600040011092390110923A0110923B011092F8
:101E70003C011092300181E08093310110923501D4
:101E800010923601109237011092380110923401ED
:101E9000109233011092320108952FB7F894609197
:101EA000390170913A0180913B0190913C012FBF23
:101EB0000895CF92DF92EF92FF92CF93DF93EC01E0
:101EC0006A017B010E944D0FC60ED71EE81EF91E47
:101ED000C882D982EA82FB82DF91CF91FF90EF9096
:101EE000DF90CF900895CF92DF92EF92FF920F9301
:101EF0001F93FC01C080D180E280F380F7FE08C010
:101F000080E01F910F91FF90EF90DF90CF900895A8
:101F10000E944D0F9701860106271727282739278A
:101F200037FD05C06C157D058E059F0548F781E0DE
:101F3000E8CF83B78B7F83BF83B7826083BF83B7CC
:101F4000816083BF83B7886083BF83B78F7B83BF84
:101F500087ED8CBF08959BE0899FF0011124EF5B12
:101F6000FE4F828508959BE0989FF0011124EF5B5E
:101F7000FE4F36832583621B730B70876783118640
:101F8000448321E0228740E050E0BA01CF010C9465
:101F9000590F2BE0629FF0011124EF5BFE4F128678
:101FA0001186009779F05FB7F8949C012078332769
:101FB000FC01413061F4232B31F4FF278081892B10
:101FC00080835FBF0895EF77FF27F160F7CF42303E
:101FD00051F4232B21F4FF2780818927F1CFEF775C
:101FE000FF27F160F9CF232B31F4FF272081892FC0
:101FF00080958223E5CFEF77FF27F160F7CFA69A90
:10200000A09AAE98A89AE1E4F1E0128616821582B1
:1020100010861782158A118A108A138A128A0895E7
:1020200080914B01882389F081E491E00E94730F35
:1020300081110BC0E0914A01E11121C0809145015D
:1020400081111AC010924B01AE98809156018823DD
:1020500009F452C08CE491E00E94730F81114CC0CE
:10206000E0915501E1112CC080915001811125C0F2
:1020700010925601A89A0895815080934501F0E08E
:10208000EE0FFF1FEF5BFE4F4581568170E060E071
:1020900081E491E00E94590F80914A0191E08927E3
:1020A00080934A018091460190914701892B69F202
:1020B00085B390E4892785BBC8CF815080935001B8
:1020C000F0E0EE0FFF1FEA5BFE4F4385548570E0A2
:1020D00060E08CE491E00E94590F9091550121E05D
:1020E0009227909355018091510190915201892B33
:1020F00019F085B3822785BB08958CB908958CB1FA
:1021000008958BB1887119F01BB881E0089580E0C3
:10211000089510BC83E289B988ED8AB986E880BD4C
:1021200008954F925F926F927F928F929F92AF929B
:10213000BF92CF92EF920F931F933901842E912C6F
:10214000B12CA12C9B01AC01281939094A095B0962
:102150008C2D8E19990BDC010E940912A3019801A4
:10216000281939094A095B090E94C7118E2D820F6F
:102170001F910F91EF90CF90BF90AF909F908F9055
:102180007F906F905F904F900895282F882339F0AB
:1021900090E081E0880F9F5F2913FCCF089581E0D4
:1021A0000895282FDB01FC018E2F821B841710F06D
:1021B00081E0089591918D919817B1F380E0089591
:1021C000362FFB012E2F231B241708F00895219191
:1021D000DC012D93CD01F6CF282FFC018E2F821B21
:1021E000841708F008956193F9CF282FFC018E2FF2
:1021F000821B861710F081E0089581918417B9F34E
:1022000080E00895282FFC0180E031E99E2F921B89
:10221000961708F008959191892798E080FD83270B
:1022200086959150D9F7F2CF0E9451000E94990FE4
:102230000E94290F0E9489100E94730D0E94C904F8
:102240000E94E40A0E94FF0F0E9452000E94240F85
:102250000E94AD0B0E94870D0E940F050E94101076
:102260000E945D00F5CFFC01208376836583249F67
:10227000202D112424831382118212820895FC01DF
:1022800082818823A1F0A18184819581A80FB92F33
:10229000B11D8C91DB018C9381818F5F8183928151
:1022A000915092839381891301C0118281E0089536
:1022B000FC0192818381981799F0A0818481958196
:1022C000A80FB92FB11D6C9380818F5F808392819D
:1022D0009F5F92839381891301C0108281E00895EA
:1022E00080E00895CF92DF92EF92FF921F93CF93F9
:1022F000DF93EC018C819B81891B990B2881281726
:102300001906C9F0C4F080E0DF91CF911F91FF90D2
:10231000EF90DF90CF900895F701E10FF11D6081FC
:10232000C6010E945811882371F31F5F8881181716
:1023300098F381E0E9CF7B0110E06E018FEFC81ABE
:10234000D80AF4CFCF92DF92EF92FF920F931F93B0
:10235000CF938C017B01C0E06C018FEFC81AD80AC3
:10236000F8018081C81748F081E0CF911F910F914B
:10237000FF90EF90DF90CF900895B7016C0F711D23
:10238000C6010E943F11882381F3CF5FE9CFA1E20C
:102390001A2EAA1BBB1BFD010DC0AA1FBB1FEE1FDF
:1023A000FF1FA217B307E407F50720F0A21BB30B2A
:1023B000E40BF50B661F771F881F991F1A9469F7A6
:1023C00060957095809590959B01AC01BD01CF0102
:1023D0000895EE0FFF1F0590F491E02D0994A29F40
:1023E000B001B39FC001A39F700D811D1124911DE9
:1023F000B29F700D811D1124911D08950E94EF114F
:10240000A59F900DB49F900DA49F800D911D112448
:102410000895B7FF0C94FE110E94FE11821B930BCE
:1024200008958F929F92AF92BF92CF92DF92EF92D8
:10243000FF92CF93DF93EC01688179818A819B8140
:10244000611571058105910521F464E279ED8BE553
:1024500097E02DE133EF41E050E00E94B5124901D1
:102460005A019B01AC01A7EAB1E40E94FE116B0185
:102470007C01ACEEB4EFA50194010E940C12C60ED3
:10248000D71EE81EF91EF7FE06C081E0C81AD10863
:10249000E10880E8F80AC882D982EA82FB82C70193
:1024A000B6019F77DF91CF91FF90EF90DF90CF90B3
:1024B000BF90AF909F908F9008958F929F92AF9210
:1024C000BF92CF92DF92EF92FF9260916000709185
:1024D0006100809162009091630061157105810532
:1024E000910521F464E279ED8BE597E02DE133EF7E
:1024F00041E050E00E94B51249015A019B01AC0134
:10250000A7EAB1E40E94FE116B017C01ACEEB4EFCE
:10251000A50194010E940C12C60ED71EE81EF91EDA
:10252000F7FE06C081E0C81AD108E10880E8F80A81
:10253000C0926000D0926100E0926200F09263006D
:10254000C701B6019F77FF90EF90DF90CF90BF90CB
:10255000AF909F908F90089560936000709361009A
:1025600080936200909363000895052E97FB1EF4FC
:1025700000940E94CC1257FD07D00E94C71107FC9F
:1025800003D04EF40C94CC12509540953095219583
:102590003F4F4F4F5F4F089590958095709561958F
:0C25A0007F4F8F4F9F4F0895F894FFCF9E
:0425AC00010000002A
:00000001FF
